:0300000002013BBF
:10013B0075BF0143B70443B60453B6F7780AD9FE2B
:10014B00D8FC43B602E5B620E1FB30E0F543B70837
:10015B0053B7FB75BB9853B70F43B7A043B702E533
:10016B00B730E0FB53B7F775BF00787FE4F6D8FDE7
:10017B0090F0007F007E02E4F0A3DFFCDEFA7581D5
:04018B00560201CA4D
:0303B500015005EF
:1003570075BF0175BA10E4F5BF1203B912038A120B
:0E0367000331E4F5B8F5B9F5F8F5F9C2AF22A7
:0D039B001203571203A8D2AF12037580FBA6
:0D03A80075C908E4F551F552C2CBD2CB2245
:10037500C3E5529414E55194004009E4F551F55252
:05038500C2CBD2CB2227
:10000300E5A85480F55653A87F75B29053C9F77588
:06001300B2D0E55642A840
:0100190022C4
:0403B90075912022F8
:10033100E4F5A975B20243900C5391F3F5B24391E0
:100341000C53AB7FF5AF75AE0175AB4075AA174382
:06035100AB805390DF2297
:0303BD008FAC22E0
:0303C000AFAD22BC
:1002F300E4FF75BF90E5B530E03053B5FE43AB8006
:10030300E5AB30E00453ABFE0FE5AB30E10653AB96
:10031300FD430702E5AB30E20653ABFB430704E5BD
:0D032300AB30E30653ABF743070875BFD0BE
:0103300022AA
:10038A00758910E4F58AF58CF58BF58DD2ABD28E92
:01039A002240
:03001B0002020FCF
:10020F00C0E0C0F0C083C082C0D075D00063A2012F
:10021F00C083C08263A201C000C001C002C003C07E
:10022F0004C005C006C00775530175540378487C98
:10023F00007D007B007A0079537E007F021201154A
:10024F0012028CE508B4BB08755100755200800886
:10025F000552E55270020551D007D006D005D004E3
:10026F00D003D002D001D00063A201D082D083632B
:0D027F00A201D0D0D082D083D0F0D0E032E8
:10028C00754A00754B00754C28754D00754E007500
:10029C004F08AF481203BDE5AB20E4FB1203C0AF1F
:1002AC00491203BDE5AB20E4FB1203C0E549D3942E
:1002BC00024033AB4A054CE54CAA4B7002054B147B
:1002CC00F912001EFF1203BDE5AB20E4FB1203C0C4
:1002DC00AB4D054FE54FAA4E7002054E14F9EF12C7
:0602EC000037154980C631
:0102F20022E9
:10018F0002039BE493A3F8E493A34003F68001F2E8
:10019F0008DFF48029E493A3F85407240CC8C33371
:1001AF00C4540F4420C8834004F456800146F6DF40
:1001BF00E4800B01020408102040809003B5E47E18
:1001CF00019360BCA3FF543F30E509541FFEE49335
:1001DF00A360010ECF54C025E060A840B8E493A3FC
:1001EF00FAE493A3F8E493A3C8C582C8CAC583CA27
:1001FF00F0A3C8C582C8CAC583CADFE9DEE780BEDF
:0103B8000044
:10001E00BB010689828A83E0225002E722BBFE02E0
:09002E00E32289828A83E4932213
:10003700BB010689828A83F0225002F722BBFE01A8
:02004700F322A2
:10004900E709F608DFFA8046E709F208DFFA803E99
:1000590088828C83E709F0A3DFFA8032E309F60886
:10006900DFFA8076E309F208DFFA806E88828C83F2
:10007900E309F0A3DFFA806289828A83E0A3F608A4
:10008900DFFA805689828A83E0A3F208DFFA804A80
:1000990080D280FA80C680D4806580F28031801059
:1000A90080A680EA809A80A880DA80E280CA8031BE
:1000B90089828A8363A20188828C8363A201E49383
:1000C900A363A201F0A363A201DFF3DEF1800B8930
:1000D900828A83E493A3F608DFF9ECFAA9F0EDFB31
:1000E9002289828A8363A20188828C8363A201E0C8
:1000F900A363A201F0A363A201DFF4DEF280DB892E
:10010900828A83E493A3F208DFF980CE88F0EF6056
:10011900010E4E60C588F0ED2402B4040050BBF511
:1001290082EB2402B4040050B123234582239000BA
:020139009973B8
:00000001FF
